:020000040000FA
:100000000C94F0030C9418040C9418040C94180429
:100010000C9418040C9418040C9418040C941804F0
:100020000C9418040C9443250C9418040C94180494
:100030000C9418040C9418040C9418040C941804D0
:100040000C9482230C9418040C94F2230C94CC236B
:100050000C9418040C9418040C9418040C941804B0
:100060000C9424240C9418044E414E494E49545982
:10007000494E46CDCCCC3D0AD7233C17B7D1387773
:10008000CC2B329595E6241FB14F0A000020410089
:1000900000C84200401C4620BCBE4CCA1B0E5AAED3
:1000A000C59D7400407A10F35A00A0724E180900E2
:1000B00010A5D4E80000E87648170000E40B5402CD
:1000C0000000CA9A3B000000E1F505000080969808
:1000D00000000040420F000000A086010000001058
:1000E0002700000000E8030000000064000000009A
:1000F000000A00000000000100000000002C76D87B
:1001000088DC674F0823DFC1DFAE59E1B1B796E560
:10011000E3E453C63AE651997696E8E6C28426EBC4
:10012000898C9B62ED407C6FFCEFBC9C9F40F2BAD7
:10013000A56FA5F490055A2AF75C936B6CF9676D6F
:10014000C11BFCE0E40D47FEF520E6B500D0ED90C4
:100150002E0300943577050080841E080000204E91
:100160000A000000C80C333333330F986E1283112A
:1001700041EF8D2114893BE65516CFFEE6DB18D101
:10018000844B381BF77C1D901DA4BBE424203284D3
:10019000725E228100C9F124ECA1E53D274F74680D
:1001A000657220636F6C693A00452E636F6C693A23
:1001B0000020756D004162736F6C75746520706FFF
:1001C000736974696F6E206F6620737465707065F3
:1001D000725F6F70746963733A2000737465707036
:1001E00065725F6F707469637320697320667265EE
:1001F0006500737465707065725F6F7074696373A6
:1002000020697320627573792E2E207761697400DE
:10021000537461676520686F6D65642C2072657327
:10022000657420746865206162736F6C75746520F5
:10023000706F736974696F6E007374657070657246
:100240005F6F7074696373206973206672656500FF
:10025000737465707065725F6F7074696373206921
:100260007320627573792E2E2077616974002043A4
:100270000054656D706572617475726520697320D4
:1002800073657420746F20004D6178696D756D2001
:1002900074656D7065726174757265206973203163
:1002A000303020430020756D004162736F6C7574AF
:1002B0006520706F736974696F6E206F6620737448
:1002C00065707065725F6F70746963733A20007354
:1002D0007465707065725F6F7074696373206973A1
:1002E000206672656500737465707065725F6F700B
:1002F0007469637320697320627573792E2E207779
:1003000061697400616273006D6F7665006C696E7F
:100310006532006C696E653100726573756C74735B
:10032000006964733D004C45445F52474200696E6A
:1003300063756261746F725F6F666600696E637584
:100340006261746F725F343400696E6375626174E8
:100350006F725F333700696E6375626174696E67CF
:10036000006175746F5F666F637573006465666FB7
:1003700067676572206F6666006465666F676765AC
:10038000725F6F6666006465666F67676572206F8F
:100390006E006465666F676765725F6F6E006C699B
:1003A00067687473206F6666006C65645F6F66666D
:1003B000006C6967687473206F6E006C65645F6FB2
:1003C0006E00696E63756261746F72206C6F672076
:1003D000636C656172656400696E635F636C65611F
:1003E000720074696D653D007274630068697374AE
:1003F0006F72795F73746F70002C002C00686973E2
:10040000746F72795F737461727400696E635F6890
:100410006973006669726D776172653D00200074D2
:10042000696D653D00737563636573730050692082
:10043000616C77617973206F6E00706F7765720001
:100440005049206F66660070695F6F6666005049AC
:100450005F6F66660070695F6F6666005049206F67
:100460006E0050495F6F6E0070695F6F6E0072655D
:100470007365745F6964005556206F666600757613
:100480005F6F6666005556206F6E0075765F6F6E03
:10049000006F205465737400432054696D650044F7
:1004A0004F574E202D20616E616C79736973005532
:1004B00050202D20696E63756261746F7200636FE6
:1004C0006E7461637420737570706F727400525033
:1004D00069206572726F7200706C61636520696E6D
:1004E00020736861646500496E63756261746F7240
:1004F000206572726F7200636F6E74616374207333
:100500007570706F727400496E63756261746F729A
:10051000206572726F72006F2D3E444F4E452078F9
:100520002D3E4241434B00496E73657274207361E6
:100530006D706C6500416E616C7973696E672E2E0B
:100540002E00416E616C7973696E672E2E00416ECC
:10055000616C7973696E672E006175746F5F666F89
:100560006375730049443D0063686C6F72696E6522
:1005700000416E616C7973696E670053616D706CD8
:100580006520666F756E640043686C6F72696E6596
:10059000207465737400506C6561736520776169C0
:1005A000742E2E00506C6561736520776169742E1E
:1005B0002E2E00506C6561736520776169742E0082
:1005C00053797374656D20626F6F74696E67005044
:1005D0006C6561736520776169742E2E2E00005E54
:1005E000BCE2613FDD83C29C7E20A3FD1F41009DD4
:1005F00023BE46DB65F88C11AF32CA57E9744669F1
:10060000726D776172653A20006F2D3E444F4E4502
:1006100020782D3E4241434B00436C6F7365206C44
:100620006964005820416E616C7973652073616D57
:10063000706C65004F2043686C6F72696E65207442
:100640006573740052656D6F76652073616D706CB3
:1006500065006F2D3E444F4E4520782D3E4241436C
:100660004B00506169722070686F6E652E2E2E00EF
:1006700063616E63656C00696E6375626174696E57
:10068000670063616E63656C00676F696E672074F5
:100690006F20696E63756261746F72207363726537
:1006A000656E0053656E736F7220646973636F6E5D
:1006B0006E65637465642C206465666F6767657238
:1006C000206F6666004465666F67676572206566C1
:1006D000666F72742069733A200020616E64200096
:1006E00048656174696E67206566666F727420691B
:1006F000733A2000432054656D70323A20005465EF
:100700006D70313A200053656E736F7232206469E8
:1007100073636F6E6E65637465642C20696E6375B8
:100720006261746F722032206F66660053656E736B
:100730006F723120646973636F6E6E656374656494
:100740002C20696E63756261746F722031206F6650
:100750006600706C65617365207265737461727494
:10076000004572726F72206F636375726564007406
:10077000656D702073617665640070695F6F666691
:100780000000000000240027002A000000000025CF
:100790000028002B00000000002300260029000490
:1007A0000404040404040402020202020203030318
:1007B0000303030102040810204080010204081012
:1007C00020010204081020000000080002010000BF
:1007D000030407000000000000000000EC25973033
:1007E00011241FBECFEFD8E0DEBFCDBF12E0A0E0E6
:1007F000B1E0EEE0F4E702C005900D92A039B10738
:10080000D9F726E0A0E9B2E001C01D92A930B207F5
:10081000E1F713E0CFEED3E004C02197FE010E9480
:10082000F937CE3ED107C9F70E9412270C94FA3946
:100830000C940000CF93DF93EC018AAD882359F12B
:10084000888D998D892B39F12C853D854E855F8565
:1008500060E070E0CB010E949F366C877D878E87B9
:100860009F87288939894A895B8960E070E0CB01DC
:100870000E949F36688B798B8A8B9B8B2C893D8954
:100880004E895F8960E070E0CB010E949F366C8BDF
:100890007D8B8E8B9F8B198E188EDF91CF91089553
:1008A0008F929F92AF92BF92CF92DF92EF92FF9280
:1008B0000F931F93CF93DF93EC016A017B0120E03C
:1008C00030E0A901CB01B6010E94B53418160CF036
:1008D00050C01AAA1BAA1CAA1DAACEAADFAAE8AE5B
:1008E000F9AE8AAD882309F444C00E8D1F8DF8013E
:1008F00080809180A280B380A5019401C701B601D8
:100900000E94B53487FF1AC0F801C082D182E2820A
:10091000F3828EA09FA0A8A4B9A4CEA8DFA8E8ACBB
:10092000F9ACA7019601C501B4010E94B4371816AD
:10093000A4F4CEA2DFA2E8A6F9A61BC020E030E016
:10094000A901C501B4010E94B53487FFE2CFF801C7
:100950001082118212821382DCCFCAA8DBA8ECA815
:10096000FDA8A7019601C501B4010E94B53487FD19
:10097000E0CFDF91CF911F910F91FF90EF90DF902B
:10098000CF90BF90AF909F908F900895833081F06B
:1009900028F4813099F08230A9F008958730A9F0C9
:1009A0008830C9F08430B1F4809180008F7D03C01D
:1009B000809180008F7780938000089584B58F7731
:1009C00084BD089584B58F7DFBCF8091B0008F7773
:1009D0008093B00008958091B0008F7DF9CFCF93C0
:1009E000DF93282F30E0F901E953F84F8491F901A2
:1009F000ED54F84FD491F901E156F84FC491CC234E
:100A0000A1F081110E94C604EC2FF0E0EE0FFF1F51
:100A1000EB56F84FA591B491EC91ED2381E090E075
:100A200009F480E0DF91CF91089580E090E0FACF63
:100A30001F93CF93DF93282F30E0F901E953F84F4C
:100A40008491F901ED54F84FD491F901E156F84F32
:100A5000C491CC23A9F0162F81110E94C604EC2F5B
:100A6000F0E0EE0FFF1FE557F84FA591B4918FB757
:100A7000F894EC91111108C0D095DE23DC938FBF60
:100A8000DF91CF911F910895DE2BF8CFCF93DF93A5
:100A900090E0FC01ED54F84F24918156984FFC01F1
:100AA00084918823C9F090E0880F991FFC01EF57CB
:100AB000F84FA591B491FC01E557F84FC591D49139
:100AC00061110DC09FB7F8948C91209582238C936F
:100AD0008881282328839FBFDF91CF9108956230BA
:100AE00051F49FB7F8943C91822F809583238C9387
:100AF000E8812E2BEFCF8FB7F894EC912E2B2C930F
:100B00008FBFEACF1F93CF93DF93182FEB0161E0E4
:100B10000E944605209739F460E0812FDF91CF9144
:100B20001F910C941805CF3FD10511F461E0F5CF6A
:100B3000E12FF0E0E953F84FE491E33031F140F474
:100B4000E130B1F0E230E1F0C038D1057CF7E4CF1C
:100B5000E73029F1E83059F1E430B1F780918000B5
:100B6000806280938000D0938B00C0938A0004C081
:100B700084B5806884BDC7BDDF91CF911F91089572
:100B800084B5806284BDC8BDF7CF80918000806845
:100B900080938000D0938900C0938800EDCF80912E
:100BA000B00080688093B000C093B300E5CF80911F
:100BB000B00080628093B000C093B400DDCF3FB737
:100BC000F89480917D0390917E03A0917F03B09172
:100BD000800326B5A89B05C02F3F19F00196A11DE3
:100BE000B11D3FBFBA2FA92F982F8827BC01CD0177
:100BF000620F711D811D911D42E0660F771F881FD6
:100C0000991F4A95D1F708958F929F92AF92BF9204
:100C1000CF92DF92EF92FF926B017C010E94DF0581
:100C20004B015C01C114D104E104F104B9F00E944C
:100C3000DF05681979098A099B09683E73408105B7
:100C4000910580F321E0C21AD108E108F10888EE8D
:100C5000880E83E0981EA11CB11CE4CFFF90EF909A
:100C6000DF90CF90BF90AF909F908F9008952FB757
:100C7000F8946091790370917A0380917B0390914D
:100C80007C032FBF0895089508950895DC01ED9128
:100C9000FC910190F081E02D0994EF92FF920F9367
:100CA0001F93CF93DF938C017B01D0E0C0E0F7016D
:100CB000EC0FFD1F6491662361F0D801ED91FC916A
:100CC0000190F081E02DC8010995892B11F0219642
:100CD000EECFCE01DF91CF911F910F91FF90EF905A
:100CE0000895AF92BF92CF92DF92EF92FF920F934F
:100CF0001F93CF93DF936C017B018B01040F151FB2
:100D0000EB015E01AE18BF08C017D10759F0699119
:100D1000D601ED91FC910190F081E02DC60109957D
:100D2000892B79F7C501DF91CF911F910F91FF902A
:100D3000EF90DF90CF90BF90AF900895FC01538D5E
:100D4000448D252F30E0842F90E0821B930B5417A5
:100D500010F0CF96089501970895FC01918D828D32
:100D6000981761F0A28DAE0FBF2FB11D5D968C91CB
:100D7000928D9F5F9F73928F90E008958FEF9FEF0A
:100D800008950F931F930E94370660930804709391
:100D9000090480930A0490930B0480E094E00E947D
:100DA000AD0697FF1DC00E94370600910804109100
:100DB000090420910A0430910B04601B710B820B13
:100DC000930B0091040410910504209106043091C6
:100DD00007046017710782079307F8F28FEF9FEF00
:100DE0001F910F910895FC01918D828D981731F01C
:100DF000828DE80FF11D858D90E008958FEF9FEFB4
:100E00000895FC01918D228D892F90E0805C9F4F89
:100E1000821B91098F739927089580E094E00E94C6
:100E2000010721E0892B09F420E0822F089580E05A
:100E300090E0892B29F00E940D0781110C9400008D
:100E40000895FC01A48DA80FB92FB11DA35ABF4F5F
:100E50002C91848D90E001968F739927848FA689B9
:100E6000B7892C93A089B1898C91837080648C930D
:100E7000938D848D981306C00288F389E02D8081BC
:100E80008F7D80830895EF92FF920F931F93CF93EE
:100E9000DF93EC0181E0888F9B8D8C8D98131AC0B5
:100EA000E889F989808185FF15C09FB7F894EE899C
:100EB000FF896083E889F9898081837080648083F9
:100EC0009FBF81E090E0DF91CF911F910F91FF9044
:100ED000EF900895F62E0B8D10E00F5F1F4F0F73EC
:100EE0001127E02E8C8D8E110CC00FB607FCFACFA7
:100EF000E889F989808185FFF5CFCE010E9421071D
:100F0000F1CFEB8DEC0FFD2FF11DE35AFF4FF08277
:100F10009FB7F8940B8FEA89FB8980818062CFCFDD
:100F2000CF93DF93EC01888D8823B9F0AA89BB8920
:100F3000E889F9898C9185FD03C0808186FD0DC00B
:100F40000FB607FCF7CF8C9185FFF2CF808185FF2C
:100F5000EDCFCE010E942107E9CFDF91CF91089517
:100F6000FC01E60FF71F90819053818180532AE0A6
:100F7000929F800D1124089520912103260F33277D
:100F8000331F21323105ECF42091D603FC0190E0AF
:100F900080E0243069F082E00895A091210321913E
:100FA000AC014F5F5C4FA40FB52FB11D2C93019680
:100FB000861798F380912103680F6093210380E0E6
:100FC000089581E008951092D60381E08093D503BF
:100FD0001092B00361E082E10E94180561E083E1B4
:100FE0000E941805E9EBF0E080818E7F808380818C
:100FF0008D7F808388E48093B80085E48093BC0073
:101000000895CF93DF9391E0909300038823B9F084
:10101000C091B800D091BA008091BC008A7B8093C7
:10102000BC0060E082E10E94180560E083E10E945C
:1010300018050E94E307D093BA00C093B800DF916F
:10104000CF910895CF92DF92EF92FF920F931F936B
:10105000CF93DF93D091FF0381E0D13208F09CC0A1
:10106000C091FE030E94DF056B017C018091D603D5
:1010700081116CC082E08093D60381E08093D50318
:101080008FEF8093D4031092D303D093D203AEEDAD
:10109000B3E0E2EBF3E080E0D8138DC01092B1032F
:1010A0008091B103CC0FC82BC093B1038091B003E2
:1010B000813009F084C01092B0030E94DF056B01FB
:1010C0007C018091B1038093BB008091D803909103
:1010D000D903A091DA03B091DB03892B8A2B8B2BE8
:1010E000A1F00E94DF050091D8031091D90320914F
:1010F000DA033091DB036C197D098E099F0906170D
:1011000017072807390708F442C08091BC0083FD07
:10111000D8CF85EC8093BC000E94DF056B017C0179
:101120008091D603823009F44CC08091D4038F3F64
:1011300009F469C08091D403803209F466C08091BB
:10114000D403803309F463C084E026C08091D803BF
:101150009091D903A091DA03B091DB03892B8A2BFC
:101160008B2B09F483CF0E94DF050091D8031091E7
:10117000D9032091DA033091DB036C197D098E09C4
:101180009F09061717072807390708F06FCF8091C6
:10119000D7030E94010885E01092DD031092FF033F
:1011A0001092DC03DF91CF911F910F91FF90EF9090
:1011B000DF90CF9008959D9191938F5F6DCF85EED5
:1011C000A9CF8091D8039091D903A091DA03B0916F
:1011D000DB03892B8A2B8B2B09F4A2CF0E94DF051E
:1011E0000091D8031091D9032091DA033091DB03E9
:1011F0006C197D098E099F090617170728073907FB
:1012000008F08ECFC4CF80E0C7CF82E0C5CF83E0A7
:10121000C3CF0895E091820380918103E81730F4F1
:10122000F0E0ED57FC4F808190E008958FEF9FEF45
:10123000089590918203809181032FEF3FEF9817DB
:1012400048F4E92FF0E0ED57FC4F208130E09F5F3C
:1012500090938203C9010895809181039091820344
:10126000891B990B0895CF92DF92EF92FF920F9313
:101270001F93CF93DF937C01CB018A012091DC0384
:10128000222389F0EB016B01C40ED51ECC15DD05C0
:1012900069F06991D701ED91FC910190F081E02D09
:1012A000C7010995F3CF642F0E94BC07C801DF91E5
:1012B000CF911F910F91FF90EF90DF90CF90089505
:1012C000CF93DF931F92CDB7DEB769832091DC0304
:1012D0002223F9F02091FF03203258F021E030E082
:1012E000FC013383228390E080E00F90DF91CF9167
:1012F00008958091DD03E82FF0E0E252FC4F9981E0
:1013000090838F5F8093DD038093FF0381E090E003
:10131000ECCF61E0CE0101960E94BC07F7CFFC0143
:10132000248131E03093DC032093FE031092DD032F
:101330001092FF038385682B8DE994E00E94600979
:101340000C94220888E08093C30460E088EB94E06A
:101350000C948F0990E080E00895DC0180E06150FA
:1013600090F09D919827E92FEF70F0E0E252FA4F4C
:101370002491E92FE295EF70F0E0E251FA4FE49109
:10138000822F8E27ECCF0895DC012C911196ED91E0
:10139000FC91F8948181822B81839281322F309548
:1013A0009323928387E090E00197F1F78181832373
:1013B000818383E290E00197F1F790817894EFECDC
:1013C000F0E03197F1F7922381E009F480E008958D
:1013D000FC0190810180F281E02D292F209560FF92
:1013E00014C0F8948281822382838181892B818336
:1013F000A3E2B0E01197F1F78281982B9283789461
:1014000087ED90E00197F1F70895F89482818223A7
:1014100082838181892B8183AFEFB0E01197F1F74F
:101420008281982B928378948FE090E0EBCFDF92CB
:10143000EF92FF920F931F93CF93DF93EC01D62E81
:10144000E42E08E010E0FF24F39461E08D2D8F215D
:1014500009F460E0CE010E94E809FF0C0150110977
:10146000A1F7E11010C0F894E981FA819181888197
:10147000809589238183E981FA8192818881809591
:10148000892382837894DF91CF911F910F91FF90F0
:10149000EF90DF900895EF92FF920F931F93CF93F9
:1014A000DF938C017B0140E065E50E94170AE701AC
:1014B00088E0E80EF11C699140E0C8010E94170A1B
:1014C000CE15DF05C1F7DF91CF911F910F91FF90EE
:1014D000EF900895FC0190810180F281E02DF89455
:1014E0008181292F20958223818378943DE743E0F1
:1014F00050E0315029F1DA011197F1F78081892309
:10150000C1F3F8948281822382838181892B818334
:101510007894ABE7B7E01197F1F7F89481818223D3
:101520008183A3E1B1E01197F1F78081982381E0F5
:1015300009F080E07894E3E6F6E03197F1F708955A
:1015400080E008958F929F92AF92BF92CF92DF92E8
:10155000EF92FF920F931F93CF93DF938C017A0149
:10156000FC01868197810E944B0A40E06EEBF801F6
:10157000868197810E94170AE7015701F9E0AF0EB3
:10158000B11CF8018680978088E0C82ED12CF12C00
:10159000EE24E394C4010E94C4098111FE28EE0CDC
:1015A000F1E0CF1AD108B1F7F992AC16BD0649F7B0
:1015B000F801868197810E946A0A91E0813009F0E2
:1015C00090E0892FDF91CF911F910F91FF90EF90C5
:1015D000DF90CF90BF90AF909F908F900895EF9243
:1015E000FF920F931F93CF93DF93CDB7DEB7299769
:1015F0000FB6F894DEBF0FBECDBF8C017B01FC019E
:10160000868197810E946A0A811102C080E020C011
:10161000AE014F5F5F4FB701C8010E94A20A882345
:10162000A9F368E0CE0101960E94AD09998589135E
:10163000EDCF8D818F33C9F020F48F3139F789E0F8
:1016400007C08F3521F08F3709F78CE001C08BE0A0
:1016500029960FB6F894DEBF0FBECDBFDF91CF91B4
:101660001F910F91FF90EF9008958AE0F1CF8F9234
:101670009F92AF92BF92CF92DF92EF92FF92CF9361
:10168000DF93EC018E819F810E946A0A40E06CEC3E
:101690008E819F810E94170A488164E48E819F8118
:1016A0000E94170A8A81882371F1E981E9508EEE40
:1016B000C82E82E0D82EE33038F4F0E0EE0FFF1FA2
:1016C000E85EFE4FC080D1808B81882339F188810C
:1016D000811124C00E9437064B015C010D2C000CC7
:1016E000EE08FF088E819F810E94C409813059F065
:1016F0000E9437066C197D098E099F0968157905C6
:101700008A059B0578F3DF91CF91FF90EF90DF90F2
:10171000CF90BF90AF909F908F900895B601DD0C51
:10172000880B990BDF91CF91FF90EF90DF90CF90D6
:10173000BF90AF909F908F900C9404061F93CF930F
:10174000DF93EC01162F60E0812F0E944605612F88
:1017500070E0FB01ED54F84FE491E883FB01E156A2
:10176000F84FE491F0E0EE0FFF1FEB56F84F859134
:1017700094919A8389831B861D861C861A861986F6
:1017800018861F821E821D821C821B82DF91CF91D0
:101790001F9108958F929F92AF92BF92CF92DF9246
:1017A000EF92FF92CF93DF93EC01EE8DFF8DC0801F
:1017B000D180E280F380CEA2DFA2E8A6F9A6EC8D6C
:1017C000FD8D80819181A281B3818AA79BA7ACA75F
:1017D000BDA78EA89FA8A8ACB9ACA5019401C7016C
:1017E000B6010E94B43718162CF48EA29FA2A8A6A8
:1017F000B9A60CC08AA89BA8ACA8BDA8A501940155
:10180000C701B6010E94B53487FDEFCFDF91CF91BC
:10181000FF90EF90DF90CF90BF90AF909F908F9010
:1018200008952F923F924F925F926F927F928F9284
:101830009F92AF92BF92CF92DF92EF92FF920F935F
:101840001F93CF93DF93CDB7DEB760970FB6F894B1
:10185000DEBF0FBECDBFDC01DA96BC91BD83B111F6
:101860001BC01D828D8160960FB6F894DEBF0FBE3F
:10187000CDBFDF91CF911F910F91FF90EF90DF903F
:10188000CF90BF90AF909F908F907F906F905F9020
:101890004F903F902F900895988B8F870E94370626
:1018A0006E837F8388879987EF85F88982A193A1CA
:1018B000A4A1B5A14E815F8168857985481B590B2C
:1018C0006A0B7B0B86A597A5A0A9B1A94817590754
:1018D0006A077B0730F2048CF58DE02D80819181C1
:1018E000A281B38189839A83AB83BC83AF85B88996
:1018F0009096ED91FC9129813A814B815C816081C8
:101900007181828193810E949F364B015C01EF853A
:10191000F88922A533A544A555A569817A818B81D3
:101920009C810E949F366B017C01AF85B8895096DF
:101930002D913D914D915C915397C501B4010E9449
:101940001B35EF85F88926A137A140A551A50E9436
:10195000A0362B013C01AF85B88996964D925D92D9
:101960006D927C929997DB96BC91BA87B11118C0A1
:10197000EF85F8892485358546855785C701B601E9
:101980000E941B359B01AC01C301B2010E949F362E
:10199000AF85B88996966D937D938D939C93999717
:1019A000EF85F88946A057A060A471A416A907A9DD
:1019B00030AC21AC212F302F432D522DC301B20169
:1019C0000E94B43718160CF076C0812F902FA32DEB
:1019D000B22DEF85F88986A397A3A0A7B1A7FA85B2
:1019E000FF2309F481C0AF85B8891C962D913D91E4
:1019F0004D915C911F97C501B4010E941B354B01AD
:101A00005C01EF85F8892489358946895789C701A2
:101A1000B6010E941B359B01AC01AF85B889969633
:101A20006D917D918D919C9199970E949F36A50112
:101A300094010E94A0366B017C019B01AC01612FD7
:101A4000702F832D922D0E94B53487FD14C0EF8531
:101A5000F88912A903A934A825A8212F302F432DD6
:101A6000522DB601C7010E94B53487FD04C01C2D5C
:101A70000D2D3E2C2F2CAF85B8895E96ED91FC91F3
:101A8000812F902FA32DB22D80839183A283B383C6
:101A900089819A81AB81BC81EF85F88982A793A760
:101AA000A4A7B5A78E819F81A885B98582A393A39A
:101AB000A4A3B5A3D7CEAF85B889D2968D919D91B9
:101AC0000D90BC91A02D8B879C87AD87BE879C0114
:101AD000AD01C301B2010E94B53487FF80CF8B8571
:101AE0009C85AD85BE8575CF812C912C540189CF05
:101AF00060E084E00C9418058F929F92AF92BF92A1
:101B0000CF92DF92EF92FF920E94370628EE33E0E9
:101B100040E050E00E946E36C0904B03D0904C03E2
:101B2000E0904D03F0904E03C20ED31EE41EF51E4E
:101B30008CE3882E912CA12CB12CC701B601A501F4
:101B400094010E940D36A7019601261B3109410917
:101B50005109CA01B901A50194010E940D3669011C
:101B60007A01CA01B901A50194010E940D36609362
:101B7000E202A7019601261B310941095109CA0158
:101B8000B901A50194010E940D3620935C03FF90DA
:101B9000EF90DF90CF90BF90AF909F908F9008957F
:101BA0001F93CF93DF93182FD92F70E060E08AE066
:101BB0000E94820570E060E089E00E9482056AE090
:101BC00070E080E090E00E94040680910501909111
:101BD0000601892B11F40E94A2098CE390E09093F6
:101BE00006018093050180919802811141C081E036
:101BF0008093980280919002811121C0E3EEF2E07F
:101C00009BE087E594838583339622E0EB3FF207E0
:101C1000C9F78EE38093E4021092FE021092FF0255
:101C2000109270001092B00082E08093B100109288
:101C3000B20081E087BB8093700080939002809116
:101C4000C404882309F446C061E086E00E9446058A
:101C5000E091C4048E2F90E0FC01EE0FFF1FE80F0F
:101C6000F91FED51FD4F8081807E86608062808308
:101C7000C091C4048FEF8C0F883060F5A12FBD2F69
:101C8000A53BB10514F0A4EBB0E0B7FF02C0B0E093
:101C9000A0E028EE33E00E94DE3724EB30E040E0A5
:101CA00050E00E940D3628513C4F4F4F5F4F285057
:101CB0003109A901440F452F441F550BD0E0FE0107
:101CC000EE0FFF1FEC0FFD1FED51FD4F4183220F63
:101CD0002095228362E370E080E090E00E94040699
:101CE00070E060E08AE00E94820570E060E089E0D8
:101CF000DF91CF911F910C9482054F925F926F926A
:101D00007F928F929F92AF92BF92CF92DF92EF928B
:101D1000FF920F931F93CF93DF9300D000D000D09A
:101D2000CDB7DEB79E838D8327013801FC01578F25
:101D3000468F758F648F31A320A312AE12AA13AA07
:101D400014AA15AA80E090E0AFE7B3E486AB97ABA6
:101D5000A0AFB1AF84E690E0A0E0B0E086A797A77F
:101D6000A0ABB1ABCF010E941A0420E030E0A90182
:101D7000C801B7010E94B53487FD7CC020E030E087
:101D8000A901C601B5010E94B53487FD73C081E089
:101D900090E0ED81FE81938F828F83AF40825182EC
:101DA00062827382A482B582C682D782108611862F
:101DB0001286138666A577A580A991A90E94BA34D8
:101DC00020E030E04AE754E40E940C3769837A83CC
:101DD0008B839C83ED81FE8144865586668677865B
:101DE0009B01AC01C601B5010E941B356B017C0152
:101DF000ED81FE81C08AD18AE28AF38A29813A8103
:101E00004B815C8160E070E0CB010E940C374B019C
:101E10005C01ED81FE81848A958AA68AB78A808DCD
:101E2000918D019739F5A801920160E070E0CB0136
:101E30000E949F36ED81FE8164877587868797872C
:101E4000A701960160E070E0CB010E949F36ED8112
:101E5000FE81608B718B828B938BA501940160E076
:101E600070E0CB010E949F36ED81FE81648B758B03
:101E7000868B978B0E943706ED81FE81C6A4D7A47E
:101E8000E0A8F1A86C197D098E099F0962A373A3CC
:101E900084A395A326960FB6F894DEBF0FBECDBFE0
:101EA000DF91CF911F910F91FF90EF90DF90CF9036
:101EB000BF90AF909F908F907F906F905F904F906A
:101EC0000895BF92CF92DF92EF92FF920F931F93EC
:101ED000CF93DF93EC01B62EC72E8D85811105C0FF
:101EE000CE010E946A0A81110EC01B861D861C86C7
:101EF00080E0DF91CF911F910F91FF90EF90DF90E5
:101F0000CF90BF90089540E060EFCE010E94170A85
:101F100001E0E12CD12C11E0CE010E94C409F82E81
:101F2000CE010E94C40991E0F91218C0813099F5E0
:101F30001134D8F2DB86D11002C081E08D878B810D
:101F4000882399F22396EB2DFC2DCF010896299139
:101F50002193E817F907D9F781E0CBCFEE2DF0E018
:101F6000F8120FC08B851817A0F4DE01AE0FBF1F4B
:101F700013968C91802379F4F12C193008F41C8786
:101F8000D12EEC0FFD1F8381902F909589238383A1
:101F90000AC08113F1CFFE01EE0DF11D8381802B6C
:101FA0008383FF24F3946F2DCE010E94E8091F5F05
:101FB000000F11F4E39401E087E08E1508F0ACCF38
:101FC000B7CFEF92FF920F931F93CF93DF93CDB7CD
:101FD000DEB761970FB6F894DEBF0FBECDBF8C01A0
:101FE000E62EDC011696ED91FC911386158614867B
:101FF0001286118610861782168215821482138229
:10200000F12CBE01665F7F4FF801868197810E94A7
:10201000610F811111C060E070E08EEF92EC61966B
:102020000FB6F894DEBF0FBECDBFDF91CF911F91E9
:102030000F91FF90EF900895EF1421F0F394EF14B7
:1020400000F7E9CF67E0CE010A960E94AD099989B1
:102050008913F4CFD80116968D919C910E946A0A3B
:102060008823C9F2AE014F5F5F4FBE01665F7F4FAD
:10207000C8010E94A20A882371F268E0CE0101968D
:102080000E94AD0999858913C6CF6A8170E0762FC9
:102090006627770F770F770F2981F8E02F9F900140
:1020A0001124262B372B8A858031D1F4688570E086
:1020B0008F81AB01481B5109CA019695982F88273B
:1020C000979587950E94CA37CB014097B90153E095
:1020D000660F771F5A95E1F760789C01260F371F2E
:1020E000213854EE35070CF496CFB901330F880B25
:1020F000990B0E94BC3420E030E040E05CE30E9499
:102100001B358DCFEF92FF920F931F93CF93DF93E9
:10211000CDB7DEB728970FB6F894DEBF0FBECDBFA0
:102120008C01DC011696ED91FC91179713861586AC
:1021300014861286118610861782168215821482E2
:10214000138214961C92149715961C92EE24E39415
:10215000BE016F5F7F4FF801868197810E94610FFA
:10216000882309F46FC067E0CE0101960E94AD0993
:1021700098858913EDCFD8018C91811125C01696D1
:102180008D919C910E946A0ABE016F5F7F4FF8019A
:10219000868197810E944B0A40E064EBD801169635
:1021A0008D919C910E94170AF801868197810E9467
:1021B000C409F82ED80116968D919C910E946A0A46
:1021C000F11002C0F801E082D8011196FC908981DB
:1021D0008031A1F1BE016F5F7F4FC8010E94EF0AFD
:1021E0008F15D0F4F8018181D80111968C93119745
:1021F00014968C9114978F5F14968C9389818832F2
:1022000031F0B0F4803119F0823209F0A1CFF80139
:1022100085818F5F85839CCF8981803111F48CE02B
:10222000E3CFBE016F5F7F4FC8010E94EF0ADCCF92
:102230008B3369F3823409F08BCFE9CFFCE0FF15D3
:1022400088F2EDCF28960FB6F894DEBF0FBECDBF53
:10225000DF91CF911F910F91FF90EF900895CF9252
:10226000DF92EF92FF920F931F93CF93DF9300D0F3
:1022700000D000D01F92CDB7DEB781E08093DC03A1
:1022800088E68093FE031092DD031092FF0360E066
:102290008DE994E00E9460090E9422080E94DF05F7
:1022A0006B017C018091D603811165C081E0809330
:1022B000D6038093D5039FEF9093D4031092D3035A
:1022C00096E09093D2038093B1038091B103806D27
:1022D0008093B1038091B003813009F0C7C01092A0
:1022E000B0030E94DF056B017C018091B1038093F4
:1022F000BB008091D8039091D903A091DA03B091EB
:10230000DB03892B8A2B8B2BA1F00E94DF05009128
:10231000D8031091D9032091DA033091DB036C19B3
:102320007D098E099F09061717072807390708F442
:1023300043C08091BC0083FDD8CF85EC8093BC0066
:102340000E94DF056B017C018091D603813009F486
:102350008FC08091D303873008F0ACC08091D30345
:10236000E2EBF3E0A3E8B3E090E0981751F121919C
:102370002D939F5FFACF8091D8039091D903A091BC
:10238000DA03B091DB03892B8A2B8B2B09F48ACFDC
:102390000E94DF050091D8031091D9032091DA0340
:1023A0003091DB036C197D098E099F090617170709
:1023B0002807390708F076CF8091D7030E940108DB
:1023C00080E01092820380938103CE0101967C010C
:1023D00000E010E08AE0D82E8DE994E00E9419090F
:1023E000282F22952F70982F9F70153009F064C008
:1023F00021702D9D900D11249E83082F001F002712
:10240000001F1F5FFFEFEF1AFF0A173029F72F8118
:10241000822F90E0013009F055C08053984F3981E8
:102420003093A3033A813093A4033B813093A503F7
:102430003D813093A6033E813093A7039093A90377
:102440008093A8038C818093AA032093AD032796E1
:102450000FB6F894DEBF0FBECDBFDF91CF911F91B5
:102460000F91FF90EF90DF90CF90089585EE66CFAB
:102470008091D8039091D903A091DA03B091DB0346
:10248000892B8A2B8B2B09F45FCF0E94DF050091EB
:10249000D8031091D9032091DA033091DB036C1932
:1024A0007D098E099F09061717072807390708F0C5
:1024B0004BCF82CF87E054CF2D9D900D1124F70193
:1024C00090839FCF8459984FAACF0F931F93CF9398
:1024D0008C01C62F0E948F096C2F6460C8010E9476
:1024E0008F096C2F6B7FC8010E948F0983EC90E0ED
:1024F0000197F1F7CF911F910F9108950F931F93BB
:10250000CF93DF938C01D62FC42F607F642B0E9462
:10251000651280E1D89FB00111246C2BC801DF91B6
:10252000CF911F910F910C946512CF93DF93CDB78C
:10253000DEB728970FB6F894DEBF0FBECDBF98E088
:10254000E0E1F1E0DE01119601900D929A95E1F73C
:102550009091C004961708F46FEF262F30E0220FF9
:10256000331F41E050E04C0F5D1F240F351FF90170
:102570006081680F606840E088EB94E028960FB6B1
:10258000F894DEBF0FBECDBFDF91CF910C947E12C9
:1025900040E061E088EB94E00E947E128BE39FE1D3
:1025A0000197F1F7089583ED92E19093730380937F
:1025B00072030E94A2090E94C81260E080E00E949B
:1025C00095126FEA74E088EB94E00E944D0661E09A
:1025D00080E00E9495126FE974E088EB94E00C941F
:1025E0004D060E94C81260E080E00E9495126FECD8
:1025F00075E088EB94E00C944D068DE090E09093AC
:102600007303809372030E94C81260E080E00E940E
:102610009512E2EBF4E0448155816081718188EB91
:1026200094E00E94710661E080E00E949512ECEA5D
:10263000F4E0448155816081718188EB94E00C94D1
:102640007106CF93DF93EC018AE090E090937303DF
:102650008093720381E0809307010E94C81260E0BA
:1026600080E00E94951260EC75E088EB94E00E9497
:102670004D0661E080E00E94951263EB75E02097C3
:1026800049F066E975E0C130D10521F0229741F4A7
:1026900064EA75E088EB94E0DF91CF910C944D06ED
:1026A000DF91CF91089585E090E09093730380933C
:1026B00072030E94C81260E080E00E94951267E2F7
:1026C00075E088EB94E00E944D0661E080E00E9496
:1026D000951267E175E088EB94E00C944D068BE071
:1026E00090E090937303809372030E94C81260E09D
:1026F00080E00E94951280916303813081F467E04D
:1027000075E088EB94E00E944D0661E080E00E9455
:10271000951267EF74E088EB94E00E944D0680917B
:102720006303823091F567EE74E088EB94E00E94D9
:102730004D0661E080E00E94951268ED74E088EB40
:1027400094E00E944D0684E690E00E94D00D68EC73
:1027500070E080E090E00E94040690E080E00E943B
:10276000D00D68EC70E080E090E00E94040684E602
:1027700090E00E94D00D68EC70E080E090E00E9454
:10278000040690E080E00E94D00D809163038330C6
:1027900081F46EEC74E088EB94E00E944D0661E0F9
:1027A00080E00E9495126EEB74E088EB94E00C944C
:1027B0004D06089541E00E947E1281E090E0089568
:1027C000FB0101900020E9F73197AF01461B570B41
:1027D000DC01ED91FC910280F381E02D09946EE41F
:1027E00071E080E094E00C94E013CF93DF93BC01A0
:1027F00080E094E00E944D06EC010E94EF138C0FE4
:102800009D1FDF91CF910895CF93DF93FC01448109
:1028100055816081718180E094E00E947106EC0135
:102820000E94EF138C0F9D1FDF91CF9108958F921F
:102830009F92AF92BF92EF92FF920F931F93CF930D
:10284000DF93CDB7DEB7A1970FB6F894DEBF0FBE0A
:10285000CDBF7C01FA01CB0119A2223008F42AE095
:102860008E010F5D1F4F822E912CB12CA12CBF0128
:10287000A50194010E946E36F901CA016A300CF577
:10288000605DD8016E938D01232B242B252B79F7C6
:1028900090E080E0109721F0BD01C7010E94E01395
:1028A000A1960FB6F894DEBF0FBECDBFDF91CF91DA
:1028B0001F910F91FF90EF90BF90AF909F908F90DE
:1028C0000895695CDECFCF92DF92EF92FF920F9373
:1028D0001F93CF93DF9377FF1DC06A017B01EC014B
:1028E0006DE20E9446068C0144275527BA014C1917
:1028F0005D096E097F092AE0CE010E941714800F3E
:10290000911FDF91CF911F910F91FF90EF90DF907A
:10291000CF9008952AE0DF91CF911F910F91FF9002
:10292000EF90DF90CF900C941714AC01990F660BC9
:10293000770B80E094E00C946314AB0170E060E0EE
:102940002AE00C941714CF93DF93BC0180E094E04D
:102950000E949D14EC010E94EF138C0F9D1FDF91CC
:10296000CF910895CF93DF93EC0187E090E09093AF
:102970007303809372030E94C81260E080E00E949B
:1029800095128091490368E875E0813011F06BE79A
:1029900075E088EB94E00E944D0661E080E00E94C3
:1029A0009512209709F042C061E775E088EB94E04A
:1029B0000E944D068091E102811135C0809149034A
:1029C000813061F488E695E00E94F51364EF71E0D0
:1029D00080E090E00E9404061092490364E675E0EE
:1029E00080E094E00E944D068091030190910401E3
:1029F0000E94A31460ED77E080E090E00E9404065E
:102A000089E595E00E94F513C1E0C09357030E9449
:102A10003706609358037093590380935A03909339
:102A20005B03C093E102DF91CF9108956EE475E0FE
:102A3000C130D10549F062E475E0C230D10521F022
:102A400065E375E0239779F788EB94E0DF91CF9108
:102A50000C944D06462F50E070E060E02AE00C94A4
:102A60001714CF93DF93BC0180E094E00E94E01341
:102A7000EC010E94EF138C0F9D1FDF91CF91089501
:102A80009C012E5F3F4F2130344014F40C94F435F8
:102A900081E591E00E94311590E080E00895209159
:102AA000AE033091AF032F5F3F4F3093AF032093BE
:102AB000AE034091A9045091AA044115510519F0A3
:102AC0004217530734F48BE791E00E94311580E000
:102AD0000895813094401CF081E591E0F6CF81E0CB
:102AE0000895EF92FF920F931F93CF938C017B0178
:102AF00002960E944F15C82F882321F0B701C80104
:102B00000E9408368C2FCF911F910F91FF90EF906C
:102B10000895BF92CF92DF92EF92FF920F931F938F
:102B2000CF93DF9300D0CDB7DEB78C017A83698372
:102B30006C0182E0C80ED11CC6010E944F1588238B
:102B400009F450C078018FEFE81AF80A81E0E8161E
:102B500084E0F806ACF181E591E00E94311580E057
:102B6000B980B816B1F1C7010E944F1581112CC070
:102B700001E010E081E0C81684E0D8066CF5C701DA
:102B80000E94EC35BA80B81659F0C6010E944F1564
:102B9000882321F06B2DC7010E94FA350F5F1F4F6C
:102BA00081E0012B09F480E00F900F90DF91CF912D
:102BB0001F910F91FF90EF90DF90CF90BF900895FD
:102BC000C8010E94EC35CCCF6B2DC8010E94FA35AC
:102BD000CFCF10E000E0CECF81E591E00E9431152B
:102BE00080E0D0CF10E000E0DBCF2F923F924F92F9
:102BF0005F926F927F928F929F92AF92BF92CF928D
:102C0000DF92EF92FF921F93CF93DF93EC016A0163
:102C10007B01722EAB019601CB01B6010E94B93740
:102C20006DE971E0811126C046015701E894B7F8BB
:102C30002FEF3FEF4FE75FE7C501B4010E94B937BF
:102C400081110CC02FEF3FEF4FE75FE7C501B401E3
:102C50000E94B53461EA71E0181664F02FEF3FEF7F
:102C60004FE75FE4C701B6010E94B4371816B4F409
:102C700065EA71E0CE01DF91CF911F91FF90EF9057
:102C8000DF90CF90BF90AF909F908F907F906F908C
:102C90005F904F903F902F900C94E0132FEF3FEFF9
:102CA0004FE75FECC701B6010E94B53487FDE0CF66
:102CB00020E030E0A901C701B6010E94B534312CF3
:102CC000212C87FF09C06DE2CE010E9446061C013F
:102CD000F7FAF094F7F8F09410E060E070E080E02C
:102CE0009FE3711641F020E030E040E251E40E94A1
:102CF0000C371F5FF6CFA70196010E94A0362B016B
:102D00003C010E9485374B015C012AE0BC01A40113
:102D1000CE010E9417147C01E20CF31C1123A1F1D7
:102D2000C501B4010E94BA349B01AC01C301B201D8
:102D30000E949F364B015C016EE2CE010E94460666
:102D4000E80EF91E115000F120E030E040E251E4BD
:102D5000C501B4010E941B352B013C010E9485373F
:102D60004B01CE010E949D14E80EF91EB40190E0C3
:102D700080E00E94BA349B01AC01C301B2010E9401
:102D80009F364B015C01DECFC701DF91CF911F91D0
:102D9000FF90EF90DF90CF90BF90AF909F908F907B
:102DA0007F906F905F904F903F902F900895CF93BA
:102DB000DF93AB01BC0122E080E094E00E94F515B6
:102DC000EC010E94EF138C0F9D1FDF91CF910895AE
:102DD0000C94E01386E090E0909373038093720369
:102DE0000E94C81260E080E00E94951269EA71E0DA
:102DF00088EB94E00E94E81660E084E00E9495125F
:102E0000609103017091040188EB94E00E949D148D
:102E100061E08AE00E9495126DEA71E088EB94E02F
:102E20000E94E81661E080E00E94951264EB71E078
:102E300088EB94E00C94E816CF92DF92EF92FF9229
:102E4000CF9381E0809348038091E102813011F4B7
:102E50001092E10282E090E09093730380937203FA
:102E60000E94C81260E080E00E949512C090C305E5
:102E7000D090C405E090C505F090C60520E030E094
:102E8000A901C701B6010E94B43720E030E040E05C
:102E90005FE387FDB1C0C701B6010E94A0360E9462
:102EA0007E37AB01BC0188EB94E00E94631460E0C4
:102EB00082E00E9495126BEB71E088EB94E00E9437
:102EC000E81660E083E00E9495124091BB055091A6
:102ED000BC056091BD057091BE0522E088EB94E0D1
:102EE0000E94F51560E085E00E94951268E974E0A3
:102EF00088EB94E00E944D06C0915C0360E08CE09A
:102F0000C93008F08BE00E9495126C2F88EB94E09A
:102F10000E942A1560E08DE00E9495126BEA71E034
:102F200088EB94E00E94E8168091E20260E08A302B
:102F300008F467C08EE00E9495126091E20288EB6F
:102F400094E00E942A1561E080E00E949512C090F2
:102F50003305D0903405E0903505F090360520E03B
:102F600030E0A901C701B6010E94B43720E030E08B
:102F700040E05FE387FD51C0C701B6010E94A03663
:102F80000E947E37AB01BC0188EB94E00E94631481
:102F900061E082E00E9495126BEB71E088EB94E0B7
:102FA0000E94E81661E083E00E9495124091BB0503
:102FB0005091BC056091BD057091BE0522E088EB83
:102FC00094E00E94F51561E085E00E9495126DEB9A
:102FD00071E088EB94E00E94E81661E08AE00E94CC
:102FE000951261E974E088EB94E0CF91FF90EF9047
:102FF000DF90CF900C944D06C701B6010E949F361A
:103000004ECF8EE00E94951265E272E088EB94E06C
:103010000E94E81660E08FE08ECFC701B6010E94E3
:103020009F36AECFFC0180819181009711F00C9406
:10303000C13060E070E0CB010895FC01248135814E
:10304000232B39F421E0FB018081882349F020E023
:1030500007C0808191810E94EA3921E0892BB9F76C
:10306000822F0895FC0124813581FB014481558123
:1030700024173507E1F4FC0180819181FB01608117
:1030800071810097D1F061157105A1F4232BC1F076
:10309000FC01808190E008C0232B91F0FB0180812E
:1030A00090E091958195910921E0892B09F020E02C
:1030B000822F08950E94EA39F7CF6115710561F7F3
:1030C00021E0F6CF0F931F93CF93DF938C01EB0199
:1030D000FC01808191810097E1F06881798161151F
:1030E0007105A9F0428153812C813D81421753071C
:1030F00070F00E94F3398C819D81F801958384835F
:103100001D821C82DF91CF911F910F9108950E9423
:103110009B3888819981F801918380838A819B8182
:10312000938382838C819D81958384831982188205
:103130001B821A82E5CFCF93DF93EC0186179707A6
:1031400011F00E946218CE01DF91CF910895CF93C4
:10315000DF93EC0188819981009711F00E949B38E0
:10316000198218821D821C821B821A82DF91CF91E4
:103170000895FC0180819181009711F00C949B3897
:1031800008950F931F93CF93DF93EC01888199816A
:10319000009759F02A813B812617370730F081E0EC
:1031A000DF91CF911F910F9108958B016F5F7F4F3A
:1031B0000E942439009759F0998388831B830A83DE
:1031C0002C813D81232B59F7FC011082E8CF80E050
:1031D000E7CFEF92FF920F931F93CF93DF93611589
:1031E000710541F480E0DF91CF911F910F91FF9025
:1031F000EF90089541155105B1F07B01EC010C8170
:103200001D81040F151FB8010E94C118882351F3B6
:10321000288139818C819D81B701820F931F0E9483
:10322000F3391D830C8381E0DECFEF92FF920F9381
:103230001F93CF93DF93EC018B01CB010E94EF3002
:103240007C01BC01CE010E94C11881110BC0CE01CE
:103250000E94A718CE01DF91CF911F910F91FF908F
:10326000EF900895FD82EC82B801888199810E94D7
:10327000E830F0CFFC011182108213821282158295
:1032800014820C941519EF92FF920F931F93CF9312
:10329000DF93EC017B018A01BA010E94C118811100
:1032A0000BC0CE010E94A718CE01DF91CF911F91D4
:1032B0000F91FF90EF9008951D830C83B7018881D3
:1032C00099810E94F339F0CFFB0101900020E9F7CA
:1032D0003197AF01461B570B0C944319EF92FF92A5
:1032E0000F931F93CF93DF93CDB7DEB7A1970FB6A0
:1032F000F894DEBF0FBECDBF7C01CB01BA01F70150
:103300001182108213821282158214828E010F5F45
:103310001F4F22E044E00E949F30009789F0BC01DB
:10332000C7010E946419A1960FB6F894DEBF0FBEC4
:10333000CDBFDF91CF911F910F91FF90EF90089536
:10334000C7010E94A718EFCFCF93DF93EC01FB01D9
:103350008617970749F0608171816115710541F009
:10336000448155810E944319CE01DF91CF91089588
:103370000E94A718F9CFFC011182108213821282D9
:10338000158214820C94A419FC01118210821382FC
:10339000128215821482FB0101900020E9F7319717
:1033A000AF01461B570B0C944319AF92BF92CF92BB
:1033B000DF92EF92FF920F931F93CF93DF936C01F5
:1033C0005B017A0189012417350720F48F2D7901DB
:1033D000042F182F60E571E0C6010E94C419D501C1
:1033E0001496CD91DC91EC16FD06E0F40C171D0748
:1033F00008F4E801D501ED91FC911197EC0FFD1F48
:10340000108110826D917C916E0D7F1DC60161153A
:103410007105A1F00E946419F50180819181C80FA6
:10342000D91F1883C601DF91CF911F910F91FF9093
:10343000EF90DF90CF90BF90AF9008950E94A718B3
:10344000EBCF8F929F92AF92BF92CF92DF92EF928B
:10345000FF920F931F93CF93DF93EC017A01DB016F
:103460001496CD90DC908601015011092FEF3FEFAB
:1034700050E040E090E080E0F0E0E0E0081719075D
:103480001CF1EE16FF061CF1DC0111965D018C1596
:103490009D0560F4DB018D909C908114910431F0C6
:1034A000D401A80FB91FAC91AC3219F00817190755
:1034B00049F43196A9014F5F5F4F9501081719072D
:1034C00009F09C01C501DACFEE16FF068CF4CE019F
:1034D0000E94D519CE01DF91CF911F910F91FF90DE
:1034E000EF90DF90CF90BF90AF909F908F90089516
:1034F00060E571E0CE010E94C419ECCFCF93DF9359
:10350000EC01FB01248135810E94D519CE01DF91A8
:10351000CF91089585ED8093BC008091D803909160
:10352000D903A091DA03B091DB030796A11DB11D69
:1035300023E0B695A795979587952A95D1F7209181
:10354000BC0024FD03C01092D60308954091D80317
:103550005091D9036091DA037091DB03452B462B20
:10356000472B69F30097A105B10541F02AE22A959E
:10357000F1F700C00197A109B109E1CF8091D7030C
:103580000C9401088F929F92AF92BF92CF92DF92DC
:10359000EF92FF920F931F93CF93DF93CDB7DEB7D8
:1035A00067970FB6F894DEBF0FBECDBF8C01DC016C
:1035B000AD90BC901197A114B10441F01496ED9018
:1035C000FC906501E114F10409F0CFC16BE874E0EF
:1035D000CE0101960E943A19BE016F5F7F4FC8016C
:1035E0000E943218F82ECE0101960E94B918FF20D1
:1035F00041F061E088E00E94180585E894E00E94AF
:10360000F5136EE774E0CE0101960E943A19BE01EF
:103610006F5F7F4FC8010E943218F82ECE010196CD
:103620000E94B918FF2041F060E088E00E94180570
:1036300087E794E00E94F5136EE674E0CE010196F0
:103640000E943A19BE016F5F7F4FC8010E94321875
:10365000F82ECE0101960E94B918FF2031F061E0EA
:1036600070E090E080E00E94711568E674E0CE01A1
:1036700041960E943A19BE016F5E7F4FC8010E94B9
:103680003218FF24F394811115C062E674E0CE0174
:1036900001960E943A19BE016F5F7F4FC8010E94D8
:1036A0003218FF24F394811101C0F12CCE01019650
:1036B0000E94B918CE0141960E94B918FF2089F0E6
:1036C00060E087E00E94180581E08093070180EBAD
:1036D00094E090930901809308018CE594E00E94A6
:1036E000F51365E574E0CE0141960E943A19BE01DA
:1036F0006F5E7F4FC8010E943218FF24F39481113E
:1037000015C06EE474E0CE0101960E943A19BE0124
:103710006F5F7F4FC8010E943218FF24F39481111C
:1037200001C0F12CCE0101960E94B918CE0141963C
:103730000E94B918FF20A1F087E494E00E94F513DD
:1037400068E97AE380E090E00E94040661E087E0A7
:103750000E9418051092070180E494E00E94F5137E
:103760006AE374E0CE0101960E943A19BE016F5FD0
:103770007F4FC8010E943218F82ECE0101960E9498
:10378000B918FF2039F081E0809371038DE294E055
:103790000E94F51365E274E0CE0101960E943A1989
:1037A000BE016F5F7F4FC8010E943218F82ECE0114
:1037B00001960E94B918FF2009F46DC00E942F11D4
:1037C0006FE174E080E094E00E944D066091A603F2
:1037D00080E094E00E942A156091A70380E094E0C5
:1037E0000E942A158091A8039091A9030E94951424
:1037F0006DE174E080E094E00E944D066091A503C5
:1038000080E094E00E942A156091A40380E094E097
:103810000E942A156091A30380E094E00E942A157B
:103820000E94EF130E94A20920E030E048EC52E42D
:103830006091BF057091C0058091C1059091C2054E
:103840000E94B53487FF10C080915C03893060F01E
:1038500080E090E0A8E4B2E480937305909374054F
:10386000A0937505B093760581E0809370038CE397
:1038700090E090930601809305010E941C1763E17C
:1038800074E080E094E00E944D0663E373E383EC10
:1038900090E40E94D7166BE074E0CE0101960E947E
:1038A0003A19BE016F5F7F4FC8010E943218F82E8F
:1038B000CE0101960E94B918FF2009F496C061EC70
:1038C00071E080E094E00E94E81680915D039091A1
:1038D0005E030E94A3148DEF93E00E94F513809184
:1038E0005D0390915E03893E934030F088EE93E053
:1038F00090935E0380935D03A4E0EA2EF12CB6E082
:10390000DB2E80915D0390915E03E816F90608F0C6
:1039100068C0C7019595879595958795FC01DE9EB2
:10392000C001DF9E900D11240E9495146BEF73E08F
:1039300080E094E00E944D06C7010E944015BC0142
:1039400080E094E00E949D1469EF73E080E094E0D1
:103950000E944D06C70102960E9440150E94A314C2
:10396000F4E0EF0EF11CCDCF64014601BFEF8B1ADE
:103970009B0AF6018081082E000C990B0E9494345A
:10398000892B91F7F1E0EF1AF108EA0CFB1CD70143
:103990008C91082E000C990B0E949434892B39F0DD
:1039A000EC14FD0420F0B1E0EB1AF108F0CFA70110
:1039B0004F5F5F4F4C195D09F80155834483AC1488
:1039C000BD0420F4B601C5010E94E139D801ED9192
:1039D000FC91119714968D919C91E80FF91F10821C
:1039E000F5CD8CEE93E00E94F51368EE73E0CE0106
:1039F00001960E943A19BE016F5F7F4FC8010E9475
:103A00003218F82ECE0101960E94B918FF20A1F1BC
:103A10000E942F1162EE73E080E094E00E944D0658
:103A20006091A60380E094E00E942A156091A703AC
:103A300080E094E00E942A158091A8039091A90348
:103A40000E9495146FEB71E080E094E00E94E8160C
:103A50006091A50380E094E00E942A156091A40380
:103A600080E094E00E942A156091A30380E094E036
:103A70000E942A150E94EF13D80114968D919C91F3
:103A80001597009721F0ED91FC91309721F4109259
:103A90009102E1E9F2E02081243509F0ABC04097C2
:103AA00009F0A8C0F80120813181FE01319690E033
:103AB00080E0D901A80FB91F2115310521F410921A
:103AC0009102A1E9B2E04C914193019680319105B8
:103AD00081F761E070E0CE0101960E94B007982E58
:103AE0008093A30363E070E0CE0101960E94B007CB
:103AF000A82E8093A40365E070E0CE0101960E9499
:103B0000B007B82E8093A5038885E0EDFE2EF80E51
:103B1000F092AA0368E070E0CE0101960E94B0071F
:103B2000C82E8093A6036AE070E0CE0101960E9441
:103B3000B007D82E8093A7036CE070E0CE01019609
:103B40000E94B007E82E6EE070E0CE0101960E9460
:103B5000B00790E0F4E6EF9E800D911D1124909344
:103B6000A9038093A803803D27E092070CF4C7C007
:103B7000805D70E8E72E998AAA8ABB8AFC8ACD8A82
:103B8000DE8A8F8B81E08093DC0388E68093FE03DE
:103B90001092DD031092FF0360E08DE994E00E9433
:103BA0006009AE014F5E5F4F6A01F12C6AE0B62EEC
:103BB000D6018C916B2D0E94BE378295807F980F25
:103BC000F60191936F01F5E0FF1203C08E898E0D0F
:103BD0008E8BF601319760818DE994E00E94600937
:103BE000F39427E0F212E4CF0E9422088BEC91E0DC
:103BF0000E94311568ED73E0CE0101960E943A19DA
:103C0000BE016F5F7F4FC8010E943218F82ECE01AF
:103C100001960E94B918FF20F1F082EC93E00E9417
:103C2000F51352E0E52EF12C70E060E0C7010E9430
:103C3000711532E0E30EF11C44EDE41643E0F406A6
:103C400099F710925E0310925D0370E060E082E0ED
:103C500090E00E9471156BEB73E0CE0101960E941B
:103C60003A19BE016F5F7F4FC8010E943218F82ECB
:103C7000CE0101960E94B918FF2009F448C0809136
:103C8000010190910001A82FA90FBB27BB1F8091B4
:103C900002018A0F9B2F911D892BA1F50E94780D9F
:103CA00081EB93E00E94F51369ED71E0C8010E9479
:103CB0001D18882309F40AC2E091C4048E2F90E0F5
:103CC000FC01EE0FFF1FE80FF91FED51FD4F808142
:103CD0008F7D80831092980267960FB6F894DEBFAE
:103CE0000FBECDBFDF91CF911F910F91FF90EF904D
:103CF000DF90CF90BF90AF909F908F9008958C569B
:103D0000E12C39CF61E084E00E941805C9CF69EA4F
:103D100073E0CE0101960E943A19BE016F5F7F4F9A
:103D2000C8010E943218F82ECE0101960E94B918DF
:103D3000FF2029F00E94780D8EE993E0B3CF62E96D
:103D400073E0CE0101960E943A19BE016F5F7F4F6A
:103D5000C8010E943218F82ECE0101960E94B918AF
:103D6000FF2079F080E090E0ACE8B2E48093730546
:103D700090937405A0937505B093760586E893E05B
:103D800091CF69E773E0CE0101960E943A19BE0116
:103D90006F5F7F4FC8010E943218F82ECE01019646
:103DA0000E94B918FF2059F0109273051092740503
:103DB00010927505109276058CE693E073CF6EEC49
:103DC00071E0C8010E941D18882319F081E693E074
:103DD00069CF66E573E0CE0101960E943A19BE01F3
:103DE0006F5F7F4FC8010E943218F82ECE010196F6
:103DF0000E94B918FF2019F00E941C1755CF69E4E2
:103E000073E0CE0101960E943A19BE016F5F7F4FA9
:103E1000C8010E943218F82ECE0101960E94B918EE
:103E200080E090E0A2E1B2E4F11017C06CE373E02F
:103E3000CE0101960E943A19BE016F5F7F4FC80103
:103E40000E943218F82ECE0101960E94B918FF2068
:103E5000A9F080E090E0A0E3B2E48093BB059093EA
:103E6000BC05A093BD05B093BE0580932B05909330
:103E70002C05A0932D05B0932E0516CF6EE273E0AE
:103E8000CE0101960E943A19BE016F5F7F4FC801B3
:103E90000E943218F82ECE0101960E94B918FF2018
:103EA00089F01092BB051092BC051092BD051092CE
:103EB000BE0510922B0510922C0510922D05109224
:103EC0002E05F2CE66E273E0CE0141960E943A19C9
:103ED00027E030E050E040E0B801CE0101960E94BA
:103EE000D519BE016F5E7F4FCE0101960E94321838
:103EF000F82ECE0101960E94B918CE0141960E947B
:103F0000B918FF2009F479C048E050E0B801CE01AB
:103F100001960E947E1ABE016F5F7F4FC8010E940A
:103F20009B18CE0101960E94B918B801CE010196E6
:103F30000E94BB1950E040E0BE016F5F7F4FCE0191
:103F400041960E94211ACE0141960E941218D62E47
:103F500060930001CE0141960E94B918CE010196EE
:103F60000E94B918B801CE0101960E94BB1941E028
:103F700050E0BE016F5F7F4FCE0141960E94211A33
:103F8000CE0141960E941218E62E60930101CE01E7
:103F900041960E94B918CE0101960E94B918B80145
:103FA000CE0101960E94BB1942E050E0BE016F5F56
:103FB0007F4FCE0141960E94211ACE0141960E9468
:103FC0001218F62E60930201CE0141960E94B91894
:103FD000CE0101960E94B918EE2DED0DFF27FF1FAF
:103FE000BF016F0D711D672B19F40E94780D5CCE17
:103FF00061E084E00E94180557CE61E273E0CE01D3
:1040000041960E943A1924E030E050E040E0B801C7
:10401000CE0101960E94D519BE016F5E7F4FCE0181
:1040200001960E943218F82ECE0101960E94B9180E
:10403000CE0141960E94B918FF2009F435CE44E024
:1040400050E0B801CE0101960E947E1ABE016F5F5A
:104050007F4FC8010E949B18CE0101960E94B9189B
:1040600049E9C42E42E0D42EF12CE12CB801CE0156
:1040700001960E94BB19A701BE016F5F7F4FCE0161
:1040800041960E94211ACE0141960E941218D60133
:104090006D937D936D01CE0141960E94B918CE01BA
:1040A00001960E94B918BFEFEB1AFB0AE4E2EE1684
:1040B000F104E1F68091990290919A02009709F437
:1040C000F3CD9093040180930301EECD69E173E099
:1040D000CE0141960E943A1927E030E050E040E0DE
:1040E000B801CE0101960E94D519BE016F5E7F4FC7
:1040F000CE0101960E943218F82ECE0101960E9440
:10410000B918CE0141960E94B918FF2009F4ACC03D
:10411000E091C4048E2F90E0FC01EE0FFF1FE80F2A
:10412000F91FED51FD4F80818F7D808310929802A1
:1041300048E050E0B801CE0101960E947E1ABE010F
:104140006F5F7F4FC8010E949B18CE0101960E94AD
:10415000B918B801CE0101960E94BB1950E040E0A9
:10416000BE016F5F7F4FCE0141960E94211ACE01A2
:1041700041960E9412187093970260939602CE01A6
:1041800041960E94B918CE0101960E94B918B80153
:10419000CE0101960E94BB1941E050E0BE016F5F65
:1041A0007F4FCE0141960E94211ACE0141960E9476
:1041B00012187093950260939402CE0141960E946A
:1041C000B918CE0101960E94B91889E090E0909349
:1041D0007303809372038091E102813011F4109295
:1041E000E1020E94C81260E080E00E94951269EA34
:1041F00071E088EB94E00E944D0660E087E00E9449
:104200009512609194027091950288EB94E00E945F
:104210009D1461E080E00E9495126DE971E088EBE9
:1042200094E00E944D0661E08BE00E94951260913F
:1042300096027091970288EB94E00E949D1460E0D2
:104240008FE00E94951263EE71E088EB94E00E948B
:10425000E81660910301709104016F5F7F4F90E059
:1042600080E00E94711538CD63E173E0CE01419684
:104270000E943A1925E030E050E040E0B801CE015C
:1042800001960E94D519BE016F5E7F4FCE01019647
:104290000E943218F82ECE0101960E94B918CE0164
:1042A00041960E94B918FF20B9F046E050E0B801ED
:1042B000CE0101960E947E1ABE016F5F7F4FC8013A
:1042C0000E949B18CE0101960E94B918B80182EB9A
:1042D00094E00E94A41900CD6DE073E0CE014196F8
:1042E0000E943A1925E030E050E040E0B801CE01EC
:1042F00001960E94D519BE016F5E7F4FCE010196D7
:104300000E943218F82ECE0101960E94B918CE01F3
:1043100041960E94B918FF20C9F046E050E0B8016C
:10432000CE0101960E947E1ABE016F5F7F4FC801C9
:104330000E949B18CE0101960E94B918B8018CEA20
:1043400094E00E94A4190E94FD12C6CC68E073E0BC
:10435000CE0141960E943A1924E030E050E040E05E
:10436000B801CE0101960E94D519BE016F5E7F4F44
:10437000CE0101960E943218F82ECE0101960E94BD
:10438000B918CE0141960E94B918FF2009F48BC0DC
:1043900028E030E045E050E0B801CE0101960E94EF
:1043A000D51949E050E0B801CE0141960E947E1A2D
:1043B00089899A89C12CD12C7601009721F00E941D
:1043C000BD306B017C01CE0141960E94B918C70136
:1043D000B6010E947E37072E000C880B990B0E94B5
:1043E000BC346B017C01BE016F5F7F4FCE014196F3
:1043F0000E94BB1982EF91E00E94F5136091920236
:1044000070919302072E000C880B990B0E94BC340C
:10441000A70196010E94A0360E947E3770939302F6
:1044200060939202673971057CF186E990E00E9401
:10443000D00D86E990E0909393028093920220E061
:1044400030E040E251E4C701B6010E941B350E94F2
:1044500085370E9404068BED91E00E94F51365EB11
:1044600071E080E094E00E944D068091920290916C
:1044700093020E94951481EB91E00E94F513CE0106
:1044800041960E94B9188CC077FF09C090E080E087
:104490000E94D00D1092930210929202D0CFCB01C5
:1044A0000E94D00DCCCF64E073E0CE0141960E9413
:1044B0003A1923E030E050E040E0B801CE01019627
:1044C0000E94D519BE016F5E7F4FCE0101960E94FA
:1044D0003218F82ECE0101960E94B918CE014196ED
:1044E0000E94B918FF20C1F186EE92E00E94F513F8
:1044F00048E050E0B801CE0101960E947E1A898101
:104500009A81009729F10E94BD300E947E376B018D
:104510007093930260939202CE0101960E94B918A3
:10452000C6010E94D00D8FEC92E00E94F51369EA5B
:1045300072E080E094E00E944D068091920290919A
:1045400093020E94951485EA92E00E94F513C4CB71
:1045500060E070E0CB01D9CF65EE71E0C8010E9448
:104560001D188111B9CB28E030E050E040E0B801DF
:10457000CE0101960E94D51969EE71E0CE01019637
:104580000E941D18F82ECE0101960E94B918FF2036
:1045900061F049E050E0B801CE0101960E947E1A18
:1045A000CE0101960E94B91897CB62EF71E0C80165
:1045B0000E941D18811190CB24E030E050E040E0D3
:1045C000B801CE0101960E94D5196DEE71E0CE01C1
:1045D00001960E941D18F82ECE0101960E94B9186E
:1045E000FF2029F128E030E045E050E0B801CE019D
:1045F00001960E94D519BE016F5F7F4FCE01419693
:104600000E94BB1980E592E00E94F51390E080E0E3
:104610000E94D00D64EF71E080E090E00E940406FB
:1046200089E392E00E94F51380E192E026CF24E036
:1046300030E050E040E0B801CE0101960E94D5196B
:1046400067EF71E0CE0101960E941D18F82ECE0191
:1046500001960E94B918FF2009F43ECB45E050E0D6
:10466000B801CE0101960E947E1A89819A81009735
:1046700009F444C00E94BD306093730570937405C3
:104680008093750590937605CE0101960E94B91826
:1046900020E030E048EC52E46091730570917405BD
:1046A00080917505909176050E94B437181684F4B0
:1046B00088E892E00E94F51380E090E0A8ECB2E474
:1046C0008093730590937405A0937505B093760558
:1046D00061E772E080E094E00E944D06409173052E
:1046E00050917405609175057091760522E080E027
:1046F00094E00E94F5158EE692E027CF60E070E02E
:10470000CB01BACF1F920F920FB60F9211242F93A5
:104710003F938F939F93AF93BF9380917903909131
:104720007A03A0917B03B0917C033091780323E05E
:10473000230F2D3758F50196A11DB11D2093780345
:104740008093790390937A03A0937B03B0937C03C7
:1047500080917D0390917E03A0917F03B0918003AF
:104760000196A11DB11D80937D0390937E03A093BC
:104770007F03B0938003BF91AF919F918F913F9141
:104780002F910F900FBE0F901F90189526E8230FC2
:104790000296A11DB11DD2CF1F920F920FB60F929C
:1047A00011242F933F934F935F936F937F938F9336
:1047B0009F93AF93BF93EF93FF9380E094E00E94A9
:1047C0002107FF91EF91BF91AF919F918F917F91C1
:1047D0006F915F914F913F912F910F900FBE0F906E
:1047E0001F9018951F920F920FB60F9211242F93BE
:1047F0008F939F93EF93FF93E0911004F091110436
:104800008081E0911604F091170482FD1BC0908115
:10481000809119048F5F8F7320911A04821741F0E1
:10482000E0911904F0E0E050FC4F958F809319045B
:10483000FF91EF919F918F912F910F900FBE0F904D
:104840001F9018958081F4CF1F920F920FB60F9290
:1048500011242F933F934F935F936F937F938F9385
:104860009F93AF93BF93EF93FF938091B900887F9D
:10487000803609F44AC0F0F5883209F4A7C018F56B
:10488000803109F49BC0B8F4882309F4F9C088305A
:1048900009F494C0FF91EF91BF91AF919F918F91D7
:1048A0007F916F915F914F913F912F910F900FBE2C
:1048B0000F901F901895883109F488C0803251F705
:1048C0008093D40314C0803409F49DC040F4803335
:1048D000B9F38833F9F68093D40385ECB0C0803502
:1048E00009F485C0883509F496C0883499F60E9489
:1048F0008A1AD0CF883909F48CC038F5883729F066
:1049000050F4883611F0803729F683E08093D6037F
:104910001092430357C0883809F47BC0803919F0DE
:10492000803809F0B7CF80914303803208F071C01E
:10493000E091430381E08E0F809343038091BB009D
:10494000F0E0ED5DFC4F80833DC0803B39F0E0F44A
:10495000803A09F479C0883A09F09CCF84E08093CA
:10496000D6031092220310922103E0914603F091A6
:10497000470309958091210381110FC081E0809345
:1049800021031092010309C0803C09F4A6CF883CA2
:1049900009F4A3CF883B09F07DCFE091220381E0A9
:1049A0008E0F80932203F0E0EF5FFC4F80818093B5
:1049B000BB00909122038091210329C08091B10313
:1049C0008093BB0085EC8093BC0064CF9091D303AF
:1049D0008091D203981758F5E091D30381E08E0FB0
:1049E0008093D303F0E0EE54FC4F8081E9CFE09157
:1049F000D30381E08E0F8093D3038091BB00F0E05E
:104A0000EE54FC4F80839091D3038091D20398178A
:104A1000C8F285E8D8CFE091D30381E08E0F809370
:104A2000D3038091BB00F0E0EE54FC4F8083809173
:104A3000D50381115CCF81E08093B00384EA809339
:104A4000BC001092D60326CF85EC8093BC00109258
:104A5000D60380914303803230F4E0914303F0E0C9
:104A6000ED5DFC4F10826091430370E0E0914403E0
:104A7000F091450383E293E00995109243030ACF36
:104A80001092D40334CF1F920F920FB60F921124BD
:104A90002F933F934F935F936F937F938F939F9346
:104AA000AF93BF93EF93FF938091FF028F5F80934B
:104AB000FF02E091FE022091FF028E2F90E0FC01A8
:104AC000EE0FFF1FE80FF91FED51FD4F8181E091BF
:104AD000FE0282131DC08E2F90E0FC01EE0FFF1F1F
:104AE000E80FF91FED51FD4F82818093B200FF91D5
:104AF000EF91BF91AF919F918F917F916F915F9156
:104B00004F913F912F910F900FBE0F901F901895CE
:104B10002091FF028E2F90E0FC01EE0FFF1FE80FA7
:104B2000F91FED51FD4F8181821708F7E091FE02D8
:104B30008E2F90E0FC01EE0FFF1FE80FF91FED51E3
:104B4000FD4F808185FF10C0E091FE028E2F90E026
:104B5000FC01EE0FFF1FE80FF91FED51FD4F8081A3
:104B600060E08F710E9418058091FE028F5F809334
:104B7000FE021092FF021092B2008091FE02882382
:104B800019F18091FE028930F8F4E091FE028E2F37
:104B900090E0FC01EE0FFF1FE80FF91FED51FD4FF4
:104BA000808185FFA4CFE091FE028E2F90E0FC0172
:104BB000EE0FFF1FE80FF91FED51FD4F808161E0FF
:104BC0008F710E94180593CF8091FE02893008F4FE
:104BD0008ECF1092FE028BCFAF92BF92CF92DF9218
:104BE000EF92FF920F931F9310920304109202040E
:104BF00088EE93E0A0E0B0E0809304049093050475
:104C0000A0930604B093070422E231E0309301043C
:104C10002093000425EC30E030930D0420930C0425
:104C200024EC30E030930F0420930E0420EC30E0AD
:104C3000309311042093100421EC30E030931304DE
:104C40002093120422EC30E03093150420931404D6
:104C500026EC30E0309317042093160410921904C8
:104C600010921A0410921B0410921C041092A004BB
:104C700010929F048093A1049093A204A093A30494
:104C8000B093A40484E391E090939E0480939D04E8
:104C900084E690E09093AA048093A904A12CB12CFF
:104CA00080E8C82E80E4D82EE12CF12C08EC11E429
:104CB0002BEB35E04FEB55E063EC75E087EC95E0CE
:104CC0000E947D0EA12CB12C20E7C22E21E4D22E11
:104CD000E12CF12C00EF11E423E735E047E755E044
:104CE0006BE775E08FE795E00E947D0EA12CB12C5B
:104CF00040E8C42E40E4D42EE12CF12C08EC11E461
:104D00002BE235E04FE255E063E375E087E395E0A1
:104D10000E947D0E62E08DE195E00E949E0B65E0B1
:104D20008FE095E00E949E0B6DE081E095E00E948F
:104D30009E0B8DE195E09093F4048093F304109220
:104D4000F1041092F2041092ED0499E09093EE04B5
:104D500081E08093EF048093F0041092000510929C
:104D6000FF042FE035E03093E0042093DF0410923D
:104D7000DD041092DE041092D9049093DA0480933B
:104D8000DB048093DC041092EC041092EB0421E02D
:104D900035E03093CC042093CB041092C9041092D8
:104DA000CA041092C5049093C6048093C7048093EC
:104DB000C8041092D8041092D7048091AB048830B4
:104DC00070F58F5F8093AB048093C4041092BB0492
:104DD0001092BA0486E491E09093B9048093B804E9
:104DE00087E28093BC0480E18093C10482E08093D9
:104DF000C2041092C3046CEF71E082EB94E00E9455
:104E0000C4196CEF71E08CEA94E01F910F91FF9050
:104E1000EF90DF90CF90BF90AF900C94C419109298
:104E2000C404D4CFCF93DF93CDB7DEB762970FB66C
:104E3000F894DEBF0FBECDBF789484B5826084BD88
:104E400084B5816084BD85B5826085BD85B581608E
:104E500085BD80916E00816080936E00109281000C
:104E600080918100826080938100809181008160C7
:104E70008093810080918000816080938000809188
:104E8000B10084608093B1008091B0008160809314
:104E9000B00080917A00846080937A0080917A00DB
:104EA000826080937A0080917A00816080937A009A
:104EB00080917A00806880937A001092C100E0911E
:104EC0001004F091110482E08083E0910C04F091D1
:104ED0000D041082E0910E04F0910F048FEC80839A
:104EE00010921804E0911404F091150486E0808378
:104EF000E0911204F0911304808180618083E0913D
:104F00001204F0911304808188608083E091120480
:104F1000F0911304808180688083E0911204F09105
:104F2000130480818F7D808382E390E0A0E0B0E075
:104F30008093040490930504A0930604B09307049F
:104F400062E370E080E090E00E94040662E08EE0A0
:104F50000E94460562E08FE00E94460562E080E123
:104F60000E94460562E081E10E94460561E084E01E
:104F70000E9446050E94780D68EC70E080E090E0A9
:104F80000E94040661E084E00E94180564EF71E06D
:104F900080E090E00E9404060E94780D1092820347
:104FA000109281031092DD031092FF030E94E30729
:104FB00083E496E0909347038093460384E496E06D
:104FC000909345038093440381E08093560389EDD9
:104FD00094E00E9482108DEE94E00E94821085EC95
:104FE00094E00E9482101092DB041092EF04109261
:104FF000C70461E08AE00E94460561E089E00E9402
:10500000460561E083E00E94460570E060E08AE0CA
:105010000E94820570E060E089E00E94820561E004
:1050200088E00E94460561E088E00E94180564EF70
:1050300071E080E090E00E94040660E088E00E9459
:10504000180561E087E00E9446058091070160E055
:10505000813009F061E087E00E94180580E090E06F
:10506000A2E1B2E48093BB059093BC05A093BD057B
:10507000B093BE0580910106811104C087EC95E0D4
:105080000E94CA0B81E08093010640E050E064E397
:1050900073E487EC95E00E94500487EC95E00E9451
:1050A0001A0480E090E0A2E1B2E480932B05909393
:1050B0002C05A0932D05B0932E05809171058111CB
:1050C00004C087E395E00E94CA0B81E080937105DC
:1050D00040E050E064E373E487E395E00E9450040D
:1050E00087E395E00E941A041092730510927405EC
:1050F00010927505109276058091B905811104C052
:105100008FE795E00E94CA0B81E08093B90540E0EB
:1051100050E06FE773E48FE795E00E9450048FE75B
:1051200095E00E941A046EEF75E080E094E00E9422
:105130004D0663E373E383EC90E40E94D7160E946C
:1051400037060E94BA3460935203709353038093DE
:1051500054039093550362E370E080E090E00E9476
:10516000040610928203109281031092DD031092C4
:10517000FF030E94E30783E496E090934703809344
:10518000460384E496E09093450380934403109291
:10519000BD048091C204823018F098E09093BD0461
:1051A0008093C00462E370E080E090E00E94040617
:1051B0006091C30488EB94E00E948F0968EE73E06D
:1051C00080E090E00E94040660E388EB94E00E9497
:1051D00065120BE416E4C8010197F1F760E388EB70
:1051E00094E00E946512C8010197F1F760E388EB33
:1051F00094E00E94651283E592E00197F1F760E286
:1052000088EB94E00E9465126091BD04606240E00A
:1052100088EB94E00E947E1284E08093BE0440E01C
:105220006CE088EB94E00E947E120E94C81282E03B
:105230008093BF0440E066E088EB94E00E947E1219
:1052400040E062E088EB94E00E947E128BE39FE1F5
:105250000197F1F70E94C8120E94A2090E941C1730
:1052600062E370E080E090E00E9404060E94A209E0
:1052700081E08093DC0388E68093FE031092DD03D7
:105280001092FF036EE08DE994E00E94600964E0F3
:105290008DE994E00E9460090E94220880E197E273
:1052A0009093AA048093A90490E080E00E944015A6
:1052B000909304018093030182E090E00E944015E6
:1052C00090935E0380935D030E94A31420915D037D
:1052D00030915E03AAE5B0E00E94903660934B03E4
:1052E00070934C0380934D0390934E030E941C17C0
:1052F00040914B0350914C0360914D0370914E03CC
:1053000080E094E00E9463140E94EF1300EB14E02D
:1053100060E571E0CE0107960E94C41980E094E038
:105320000E940107892BC9F160E571E0CE01019669
:105330000E94C4190E94C10697FD0FC08A309105D2
:1053400061F08D871E8641E050E0BE01635F7F4FB4
:10535000CE0101960E94E918EDCFBE016F5F7F4F2D
:10536000CE0107960E946218CE0101960E94B918DC
:10537000BE01695F7F4FCE0101960E94BB19CE012D
:1053800001960E94C21ACE0101960E94B91810938C
:1053900009010093080110925703CE0107960E945D
:1053A000B9188EE00E94EF047C018FE00E94EF04A8
:1053B000880F991FE80EF91E80E10E94EF04880F04
:1053C000991F880F991FE80EF91E81E10E94EF04D2
:1053D00073E0880F991F7A95E1F78E0D9F1D9093CA
:1053E0005103809350038F30910509F4DFC00E9470
:1053F00095140E94EF13809150039091510396955C
:10540000879521E0822780FF40C0809172039091B0
:1054100073030297D1F580914F038F5F80934F0301
:10542000873099F56DE072E082EB94E00E94641998
:105430006CE172E08CEA94E00E9464190E94FD1213
:1054400010924F030E94370628EE33E040E050E010
:105450000E946E3688279927DC01821B930BA40BD0
:10546000B50B80934B0390934C03A0934D03B093E3
:105470004E030E947C0D10925E0310925D0370E05B
:1054800060E082E090E00E9471158091500390915D
:105490005103969587959695879531E0832780FFF0
:1054A0003DC080917203909173030297B9F580918A
:1054B0004F038F5F80934F03873081F567E272E07F
:1054C00082EB94E00E94641965E372E08CEA94E058
:1054D0000E9464190E94FD1210924F0389E392E02A
:1054E0000E94311568E97AE380E090E00E940406AA
:1054F00061E087E00E94180560E472E082EB94E0CE
:105500000E9464196BE472E08CEA94E00E946419D2
:105510000E94FD12109207011092700380915003B7
:1055200090915103BC017695679551E065276170B4
:10553000209172033091730341E0A2E1233D3A07C9
:1055400009F040E0662309F4F0C0442309F4EDC0FB
:10555000809148038111E6C081E090E0909373034D
:10556000809372030E94C81260E080E00E9495124E
:1055700068E572E088EB94E00E94E81661E080E064
:105580000E94951268E672E088EB94E00E94E816AB
:1055900089E896E00E94F51310925103109250038F
:1055A0006AEF70E080E090E00E9404060E943706F7
:1055B000C0907403D0907503E0907603F090770369
:1055C0006C197D098E099F09693873418105910520
:1055D00008F40CC48091720390917303029711F444
:1055E0000E941C17EDB7FEB7FA8BE98B809156032A
:1055F0002DB73EB754E0859F2019310911240FB60D
:10560000F8943EBF0FBE2DBF8DB79EB70196988B05
:105610008F8789ED94E00E94370B85EC94E00E941F
:10562000370B60E085EC94E00E94E10F6093330556
:105630007093340580933505909336050E943706A4
:105640000E94BA3420915203309153034091540385
:10565000509155030E949F3620E030E04AE754E421
:105660000E940C376B017C0120E030E0A9016091C1
:10567000BB057091BC058091BD059091BE050E944F
:10568000B437181614F40E947C0DB701A601CE01A0
:1056900007960E946E19BE01695F7F4FCE01019689
:1056A0000E94BB1942E050E068E772E0CE0101962B
:1056B0000E94E918811104C0CE0101960E94A7182A
:1056C000CE0101960E940414CE0101960E94B918E1
:1056D000CE0107960E94B918AF84B8886501F12CF5
:1056E000E12C412C512C32016091560370E0E616FA
:1056F000F7060CF0A2C16E2D89ED94E00E94E10F37
:105700009B01AC01D6012D933D934D935D936D01AB
:10571000C301B2010E94A0362B013C01BFEFEB1A7E
:10572000FB0AE2CF0E941C1733CFFC01F695E795E8
:10573000F695E795B1E0EB275E2F51704423E1F039
:105740005523D1F08091700381110FC090E080E06B
:105750000E94211310924A0360E087E00E9418051E
:10576000109309010093080117CF109309010093CA
:1057700008010E94531310CFFC01E095F0954E2FC5
:105780004170E1E02530310509F0E0E04423F9F013
:10579000EE23E9F0ECE0F0E0F0937303E0937203A2
:1057A0000E94C81260E080E00E94951269E176E0F4
:1057B00088EB94E00E944D0661E080E00E94951223
:1057C00069E076E088EB94E00E944D06E5CE71E05A
:1057D0002C30310509F070E04423D9F07723C9F06B
:1057E0002EE030E030937303209372030E94C812BE
:1057F00060E080E00E94951264E376E088EB94E03C
:105800000E944D0661E080E00E94951263E276E01E
:10581000D9CFF1E02E30310509F0F0E0442341F01A
:10582000FF2331F081E0809349030E94EA16B4CE51
:10583000A3E096958795AA95E1F7A1E08A27817064
:10584000FF2329F0882319F010924903EECFEE23AD
:1058500029F0882319F00E941C179ECE91E0283071
:10586000310509F090E0442329F0992319F00E94B2
:10587000F11292CE882311F09111F9CF2B3031051E
:1058800029F4882319F010926603E5CF29303105F9
:10589000C9F48823B9F082E896E00E94F5130E94CB
:1058A000C81260E080E00E94951264E476E088EB24
:1058B00094E00E944D0660EA7FE080E090E00E9464
:1058C0000406C9CF91E02630310509F090E0662347
:1058D00061F0992351F080910301909104010196A8
:1058E0009093040180930301A0CF552341F09923A5
:1058F00031F080910301909104010197F1CF44238D
:1059000039F0992329F090E080E00E94B21444CE4F
:10591000882311F091112DCF772311F0811129CF18
:1059200091E02130310509F090E0662399F0992348
:1059300089F087E796E00E94F51380E090E0A2E10D
:10594000B2E48093BB059093BC05A093BD05B093D2
:10595000BE0581CF552339F0992329F080E090E0EE
:10596000A0E3B2E4EECF51E02230310509F050E07F
:10597000442399F0552389F0809170038111F5CE6D
:105980001092640390E080E00E94211360E087E0C1
:105990000E94180510924A03E3CE8823A9F15523EB
:1059A00089F180917003811110C090E080E00E9425
:1059B000211360E087E00E9418051093090100930D
:1059C000080181E080934A03E7CD10930901009319
:1059D0000801A4E0B0E0B0937303A09372030E94A7
:1059E000C81260E081E00E94951262E676E088EBE2
:1059F00094E00E944D0661E080E00E94951262E50D
:105A000076E0E0CE911127CF91E02430310509F006
:105A100090E0442311F091111ECF882311F09111D1
:105A20001ACF2D30310509F0B7CD882309F4B4CD54
:105A300080E796E00E94F5130ECF072E000C880B2E
:105A4000990B0E94BC349B01AC01C301B2010E94BE
:105A50000C376B017C01912C812C712C80915603A9
:105A60008815190451F14CF1F501219031904190C4
:105A700051905F0120E030E048E452ECC201B101F6
:105A80000E94B53487FD0AC020E030E04AEA52E4C3
:105A9000C201B1010E94B53481110BC08CE297E0C4
:105AA0000E94F51370E060E08AE00E94820577248E
:105AB0007394FFEF8F1A9F0AD1CF80903305909097
:105AC0003405A0903505B090360520E030E048E47C
:105AD00052ECC501B4010E94B53487FD0BC020E033
